:020000040800F2
:1000000058070020890100089101000893010008A9
:100010009501000897010008990100080000000000
:100020000000000000000000000000009B0100082C
:100030009D010008000000009F010008591B0008F6
:10004000A3010008A3010008A3010008A301000800
:10005000A3010008A3010008A3010008A3010008F0
:10006000A3010008A3010008A30100081103000870
:10007000A3010008A3010008A3010008A3010008D0
:10008000A3010008A301000891020008A3010008D1
:10009000A3010008A3010008A3010008A3010008B0
:1000A000A3010008AD1B0008A3010008A30100087C
:1000B000A3010008A3010008A3010008A301000890
:1000C000A3010008A3010008A3010008A301000880
:1000D000A3010008A3010008A3010008A301000870
:1000E000A3010008A3010008A301000800F002F822
:1000F00000F03AF80AA090E8000C82448344AAF188
:100100000107DA4501D100F02FF8AFF2090EBAE885
:100110000F0013F0010F18BFFB1A43F0010318473B
:10012000D4290000F4290000103A24BF78C878C10F
:10013000FAD8520724BF30C830C144BF04680C60ED
:10014000704700000023002400250026103A28BF35
:1001500078C1FBD8520728BF30C148BF0B60704739
:100160001FB51FBD10B510BD00F058F81146FFF7C0
:10017000F7FF01F0ADFE00F076F803B4FFF7F2FFF1
:1001800003BC00F07DF8000009488047094800479B
:10019000FEE7FEE7FEE7FEE7FEE7FEE7FEE7FEE737
:1001A000FEE7FEE704480549054A064B7047000094
:1001B0005D1B0008ED0000085801002058070020D2
:1001C00058030020580300204FF0000200B51346EA
:1001D00094469646203922BFA0E80C50A0E80C5067
:1001E000B1F12001BFF4F7AF090728BFA0E80C5018
:1001F00048BF0CC05DF804EB890028BF40F8042B11
:1002000008BF704748BF20F8022B11F0804F18BF7D
:1002100000F8012B7047704770477047754600F033
:100220002BF8AE4605006946534620F00700854688
:1002300018B020B5FFF7B6FFBDE820404FF000062C
:100240004FF000074FF000084FF0000BAC46ACE851
:10025000C009ACE8C009ACE8C009ACE8C00921F0AD
:1002600007018D46704710B50446AFF30080204665
:10027000BDE81040FFF781BF00487047180000201C
:1002800001491820ABBEFEE72600020070470000BF
:1002900040F28C00C2F2000000F036B90146406A1C
:1002A000826A12F0500F03D0006A026B08461047B2
:1002B0000168826A42F400728262896801F46021F6
:1002C000B1F5602F01D1017B11B100F0F5B800BF8D
:1002D000816A21F480718162816AC90448BF00F09B
:1002E000EBB8816A41F00101816200F0E5B80000DD
:1002F000406A816A41F040018162C16A41F00401B3
:10030000C16200F0FFB80000406A00F0F9B80000D8
:1003100040F21010C2F2000000F048BBEFF3108072
:1003200072B600BFFEE700007047000010B581B054
:100330000022009290F82420012A03D102210846CD
:1003400001B010BD4B680122062B80F8242017D87D
:10035000D0F800C003EB83035A1F1F23DCF834E0FE
:1003600003FA02F40B682EEA040403FA02F22243B1
:10037000CCF83420092B03EB430219D936E000BF37
:10038000D0F800C00C2B03EB83021DD8233A1F23A7
:10039000DCF830E003FA02F40B682EEA040403FAF6
:1003A00002F22243CCF83020092B03EB43021DD884
:1003B000DCF81030072489689440A3439140194326
:1003C000CCF81010002130E0413A1F23DCF82CE07B
:1003D00003FA02F40B682EEA040403FA02F2224341
:1003E000CCF82C20092B03EB4302E1D9DCF80CE01C
:1003F0001E3A0724896894402EEA0404914023F0B1
:1004000001022143102ACCF80C100DD142F2084110
:10041000C4F20101A1F1080294450DD0816A41F0B6
:1004200020018162012100E00021002280F82420C7
:10043000084601B010BD00BF0A68120230D40A6835
:10044000102B42F400020A602CD140F20C01C2F2DF
:10045000000109684DF68362C4F21B32A1FB02124F
:10046000910C01EB8101490000910099E1B10099E3
:10047000013900910099C9B10099013900910099A1
:10048000B1B1009901390091009999B100990139F0
:100490000091009900294FF00001E8D1C5E700BFA5
:1004A0000021C2E70021C0E70021BEE70021BCE730
:1004B0000021BAE70021B8E710B5006842F2004118
:1004C000C4F20101884218BF10BD40F28404C2F298
:1004D0000004608802F0CEF846F26663C4F20A03B4
:1004E0004FF0663202F0DAF84FF60063C4F2AF0361
:1004F000002201F065FF01F031FF606010BD0000D7
:10050000704700007047000010B50446006841685D
:10051000890644BF01685FEA81710BD4416809060E
:1005200044BF01685FEA41712AD4416849065BD43F
:1005300010BD00BFA16AC90603D4A16A41F40071CD
:10054000A162816801F46021B1F5602F10D1217B97
:1005500071B9416821F020014160A06A20F48070E7
:10056000A062A06AC00403D4A06A40F00100A062A7
:100570002046FFF7A1FF20686FF012010160CDE770
:10058000A16AC90603D4A16A41F40051A16281683D
:1005900001F4E041B1F5E04F10D1416821F0800154
:1005A0004160A06A20F48050A062A06AC00511D406
:1005B000A06A40F00100A0620CE000BF416849055C
:1005C00008D4816801F46021B1F5602F02D1217B4C
:1005D0000029E2D02046FFF7A7FE20686FF00C014B
:1005E000016041684906A3D50068C00708BF10BD77
:1005F000A06A40F48030A062204600F0ABF820688A
:100600006FF00101016010BDB0B5002800F0A080BE
:100610000446806A20B120688168C9070BD031E0A8
:100620000020E06284F82400204600F095F820685D
:100630008168C90726D1A16AC9063DD4A16A41F2E1
:10064000021291430231A162E169D4E9013241EA27
:10065000030C531EB3FA83F35D091346B2F5807F92
:1006600018BF2B02217D257B01294CEA450132D19F
:1006700045B3A56A45F02005A562E56A45F0010588
:10068000E56228E0816821F00101816000F008FC4A
:10069000054600BF20688168C907CCD000F000FC87
:1006A000401B0328F6D3A06A40F01000A062E06A65
:1006B00040F00100E062A06AA06A40F01000A06271
:1006C0000120B0BDD4F818C04EF60005CFF6FF7576
:1006D00005EB4C352B434568B2F5807F25F4694521
:1006E00043EA0503436083684FF2FD75CFF6E17579
:1006F00003EA050343EA0103836001D0012A07D11D
:1007000022690023CFF6F07303EB025201E000BF31
:100710000022C36A23F470031A43C262806840F661
:10072000FE62CFF61F721040884207D10020E062BF
:10073000A16A012262F30101A162B0BDA06A40F08A
:10074000100020F00200A062E06A40F00100E062C8
:100750000120B0BD70470000F0B585B0044640F6FA
:100760000000C4F20100216800F5E0520026914229
:100770000496039602D005B0F0BD00BF41F2180107
:10078000C4F202010A68802742F400720A600A6813
:1007900002F400720092009A0A6842F004020A60B1
:1007A000096801F00401009100990321029101A957
:1007B000019700F053FA40F210150820C2F200052C
:1007C000C4F202004FF48071C5E9000605F1100083
:1007D0004FF4806246C02846C5E90267EE6100F02A
:1007E000B3F9002818BFFFF799FD1220002100225D
:1007F00025626C6200F0D6FB122000F0BFFB05B052
:10080000F0BD0000F0B581B015460446026842F61E
:100810000000C4F2010082420E4605D042F20040C0
:10082000C4F2010082420BD142F20440C4F2010042
:10083000006810F4702F03D0012001B0F0BD00BF9C
:1008400094F82400012803D1022001B0F0BD00BFBC
:10085000012084F82400002000909068C00743D154
:1008600090684DF6836140F00100906040F20C000A
:10087000C2F200000068C4F21B31A0FB0101880C29
:1008800000900098A8B100BF00980138009000982F
:1008900078B1009801380090009850B10098013864
:1008A0000090009828B10098013800900098002826
:1008B000EAD100F0F5FA074622689068C00713D124
:1008C00000F0EEFAC01B0228F6D9A06A40F0100032
:1008D000A062E06A40F00100E062002084F8240099
:1008E000012001B0F0BD00BF42F20440A16AC4F291
:1008F000010040F60173994300F57F7301F58071A3
:100900009A42A16246D0A06A20F48010A06250688A
:10091000400504D5A06A012161F30D30A062A16AEF
:100920000020C9044FF0000144BFE16A21F0060134
:10093000E16284F82400206A40F29D21C0F60001A3
:1009400040F2093340F2F12700F1280CC0F6000311
:10095000C0F600078CE88A006FF002011160916810
:100960002B4641F48071916002F14C01324600F057
:1009700027F92068816801F460228168B2F5602F50
:100980000CBF41F4A00141F480118160002001B04E
:10099000F0BD00BF016811F4702FB4D0A16A41F41A
:1009A0008011A16200684005B9D5B3E710B5D0E960
:1009B0000FCE0168DCF800300A6823FA0EF35C07FA
:1009C0002AD512F0040427D00A68920603D40A68D4
:1009D00022F004020A602F22C4F20202914240F285
:1009E0000402C4F2020259DD3023C4F20203994228
:1009F00070D04423C4F20203994271D05823C4F248
:100A00000203994278D14FF480231360C16A002910
:100A100040F097806EE000BF9C0727D512F00204DB
:100A200024D00A68920606D40A6822F00A020A60F4
:100A3000012280F821202F22C4F20202914240F2CA
:100A40000402C4F2020239DD3023C4F202039942E7
:100A50005ED04423C4F2020399425DD05823C4F20D
:100A6000020399425ED14FF4003363E01B0741D586
:100A700012F0080208BF10BD0A6822F00E020A60D8
:100A8000012101FA0EF2CCF804208163016B4FF4CE
:100A900080720029028454D12CE000BF0823C4F2E4
:100AA0000203994222D01C23C4F20203994223D1AB
:100AB00040231360C16A002943D11BE00823C4F21C
:100AC000020399422CD01C23C4F20203994229D17B
:100AD00020232FE04FF480631360C16A89BB09E0D3
:100AE0004FF480431360C16A59BB03E004231360D1
:100AF000C16A31BB10BD00BF02F168044FF08063D2
:100B0000A14208BF4FF480031360C16AC9B9F1E77D
:100B10004FF400730EE000BF4FF400530AE000BF33
:100B2000022307E002F168044FF00073A14208BFFE
:100B30004FF400131360816A0022002980F82020FE
:100B4000D8D0BDE810400847002804BF01207047F6
:100B50002DE9F04101684FF6F872CBF6FD724CF6C4
:100B6000CD430A44CCF6CC43A2FB03236FF003072A
:100B700007EA93030027C4F2020700F1040E00F114
:100B80001008C0E90F739EE8045098E870010B68E4
:100B900043F6F077BB431A4342EA0C0242EA0E02E4
:100BA00022432A43324342EA08020A6000214FF4FA
:100BB000807281630284BDE8F041084670470000FE
:100BC000F0B590F820C0BCF1010F32D090F821C0F0
:100BD0004FF0010EBCF1010F80F820E026D14FF05C
:100BE000020C80F821C04FF0000CC0F838C0D0E9EA
:100BF00000C4C56AC66BDCF80070102C27F0010732
:100C0000CCF80070006C0EFA00F070600846CCF86A
:100C1000043004BF10460A46CCF80800CCF80C207B
:100C2000DCF8000045B140F00E000DE0002180F836
:100C300020100220F0BD00BF20F00400CCF800001E
:100C4000DCF8000040F00A00CCF80000DCF80000FE
:100C500040F00100CCF800000020F0BD2DE9F04F7D
:100C600082B00E68002E00F0038140F20C4C41F27D
:100C700000424FF6FF7EC4F2010CC4F201020427C9
:100C800000240123C1F2100E4FF0000A4FF00009BA
:100C9000904208BF0327009745E000BF012704F0FA
:100CA0000C030F229A402BEA020207FA03F34FEAE1
:100CB0009A051A4346F82520D1F804B040F20045C1
:100CC000C4F201055FEACB322A6854BF22EA080267
:100CD00042EA08022A606A685FEA8B3354BF22EA5C
:100CE000080242EA08026A605FEACB23AA6854BF9E
:100CF00022EA080242EA08025FEA8B23AA60DCF8D3
:100D000000204FF0010354BF22EA080242EA080221
:100D1000CCF800200E680AF1010A36FA0AF204F152
:100D2000040400F0A58003FA0AF816EA080FF1D0CF
:100D30004E68764512DC122E56D8DFE806F0350BE9
:100D40004549555555555555555555555555554D77
:100D5000510000BFD1F80C9046E000BF4FF6FF7283
:100D6000C1F2210296420FDC0022C1F2110296422A
:100D70001AD00022C1F21202964215D00022C1F20E
:100D80002102964210D02FE00022C1F222029642A8
:100D90000AD00022C1F23102964205D00022C1F2EF
:100DA0003202964220D100BF8A684AB1012A14BF9C
:100DB000C0F81480C0F810804FF0080914E000BF9C
:100DC0004FF0040910E000BFCA6802F108090BE007
:100DD0004FF0000908E000BFCA6802F1040903E00F
:100DE000CA6802F10C0900BF22460646BAF1080F94
:100DF00024BF203A043637680F25954027EA0505B9
:100E000009FA02F22A433260CA79D2067FF582AF2C
:100E100041F21803C4F202031A6842F001021A6098
:100E20001A6802F001020192019A40F20042C4F2F3
:100E30000102A2F57E762AF0030256F802B040F6CF
:100E40000002C4F20102904210D040F60042C4F207
:100E5000010290423FF422AF41F20002C4F20102CB
:100E6000009F904208BF022719E700BF002716E73E
:100E700002B0BDE8F08F00008068084018BF012074
:100E800070470000C26814230A4208BF1023C150F3
:100E900070470000002A08BF090401617047000084
:100EA00040F25410C2F200000068704740F20400A3
:100EB00040F25411C2F20000C2F2000100780A6848
:100EC000104408607047000080B542F20000C4F290
:100ED0000200016841F010010160032000F08EF86B
:100EE0000F2000F005F800F027F8002080BD00007A
:100EF00070B540F20406C2F2000640F20C013278EE
:100F0000C2F200014FF47A730968B3FBF2F20446AF
:100F1000B1FBF2F1084600F0C1FB0F2C4FF00105C8
:100F200008D838B94FF0FF3021460022002500F0E4
:100F300039F87460284670BD82B041F21800C4F2DE
:100F400002000168022241F001010160016801F024
:100F5000010101910199416841F08051416040686F
:100F600000F08050009000980420C4F20100016855
:100F700062F31A61016002B070470000002848BFA8
:100F80007047C1B200F01F00012202FA00F04EF2D9
:100F90000012CEF2000242EAD10121F00301086002
:100FA0007047000010B54EF60C5CCEF2000CDCF879
:100FB0000030C3F3022E8EF00704042C28BF042453
:100FC000BEF103034FF0FF3E0EFA04F438BF0023D6
:100FD000A14399400EFA03F39A43114300F00F0224
:100FE00000F160430901043A03F5644362440028B8
:100FF00048BF02F10C03197010BD00004EF60C51F1
:10100000CEF200010A684FF6FF031A4060F30A228D
:1010100042F0806040F0FD70086070472DE9F041BB
:1010200082B00446007841F21C06C007C4F20206F2
:101030004AD0306810F0805808D1306840F08050B5
:101040003060306800F080500190019847F200074E
:10105000C4F200073868C00512D4386840F48070C4
:101060003860FFF71DFF05463868C00508D4FFF754
:1010700017FF401B6428F7D9032002B0BDE8F081B8
:10108000706810F4407012D0616801F440718842B9
:101090000DD0706840F24042C4F24222012320F495
:1010A000407113600023C007136071602AD170681B
:1010B000616820F440700843B8F1000F706003D1FC
:1010C000306820F0805030602068810707D556F8DE
:1010D000181CA26821F44041114346F8181CC006B0
:1010E00004D4002002B0BDE8F08100BF56F8180C0F
:1010F000E16820F48000084346F8180C002002B094
:10110000BDE8F081FFF7CCFE054641F2883700BF0D
:1011100070688007CBD4FFF7C3FE401BB8424FF086
:101120000300F5D9EBE700002DE9F04381B000287A
:1011300000F0858042F20008C4F202080446D8F8A4
:1011400000000D4600F0070088420CD2D8F80000DD
:1011500020F007002843C8F80000D8F8000000F08D
:101160000700A8426BD1206841F204098107C4F24C
:10117000020917D5410705D5D9F8001041F4E061FF
:10118000C9F80010010705D5D9F8001041F46051E5
:10119000C9F80010D9F80010A26821F0F00111433D
:1011A000C9F80010C00741D1D8F8000000F00700CE
:1011B000A8420CD9D8F8000020F007002843C8F84E
:1011C0000000D8F8000000F00700A84237D12068DE
:1011D000410707D5D9F80010E26821F4E061114316
:1011E000C9F80010000708D5D9F80000216920F4DB
:1011F000605040EAC100C9F80000D9F8002002F0B0
:101200000C00082841F20020C0F27A0050D142F6CA
:10121000E423C2F38341C0F60003595CD2033BD4FC
:1012200040F60010C0F23D00484341E060680228EB
:101230000AD001282AD159F8041C890308D40120B6
:1012400001B0BDE8F08300BF59F8041C8901F6D550
:10125000D9F8001021F003010843C9F80000FFF796
:101260001FFE064641F28837D9F80000616800F099
:101270000C00B0EB810F97D0FFF712FE801BB84235
:10128000F2D9032001B0BDE8F08300BF59F8041C77
:101290008907D4D5DCE700BFD9F8002042F6D22375
:1012A000C2F34042C0F600039A5C4843B0FBF2F040
:1012B000D9F8001042F6D422C1F30311C0F600029F
:1012C000515C40F20C0220FA01F140F20800C2F237
:1012D00000000068C2F200021160FFF709FE002062
:1012E00001B0BDE8F08300002DE9F04182B0002894
:1012F00068D00446007841F20006C007C4F2020636
:1013000025D0706800F00C0004281BD0706800F035
:101310000C00082802D17068C00313D4606800284C
:1013200000F06881B0F5A02F00F07C81B0F5803F1F
:1013300000F07C81306820F480303060306820F428
:10134000802076E13068800301D56068D0B32078D2
:10135000800718D5706810F00C0F07D0706800F087
:101360000C0008286ED17068C0036BD43068800709
:1013700002D52069012825D13068616920F0F80084
:1013800040EAC1003060207800071FD42078400771
:1013900032D4E56995B1706800F00C00082840F07F
:1013A0008F80012D0ED07068216A00F480328A424D
:1013B00008D1616A00F47010884203D1002002B0A5
:1013C000BDE8F081012002B0BDE8F081A0690028ED
:1013D00062D00020C4F242200121C0F88014FFF73F
:1013E0005FFD0546706A800700F18C80FFF758FDAD
:1013F000401B0228F6D92AE1F06910F0805808D184
:10140000F06940F08050F061F06900F08050009089
:10141000009847F20007C4F200073868C00529D4D5
:10142000386840F480703860FFF73AFD054600BF29
:101430003868C0051ED4FFF733FD401B6428F7D978
:1014400005E100BF2069002840F20000C4F24220FC
:1014500000F0828001210160FFF722FD054600BFF8
:10146000306880073FF588AFFFF71AFD401B022860
:10147000F6D9ECE0E068002800F08080052800F054
:101480009780012800F09880306A20F001003062D7
:10149000306A20F0040092E00020C4F242200021D3
:1014A000C0F88014FFF7FCFC054600BF706A800797
:1014B0007FF56CAFFFF7F4FC401B0228F6D9C6E0BD
:1014C0000027C4F2422700203866FFF7E9FC022D0E
:1014D00005460BD13068800140F1BE80FFF7E0FC8B
:1014E000401B02284FF00300F4D968E73068800100
:1014F0007FF564AFFFF7D4FC401B02284FF00300D8
:10150000F4D95CE740F20C00C2F20000006844F637
:10151000D351C1F26201A0FB0101480A019000BF52
:1015200000BF0198411E002801913FF42FAF00BF7A
:101530000198411E002801913FF428AF00BF019897
:10154000411E002801913FF421AF00BF0198411EC8
:1015500000280191E4D119E700210160FFF7A0FC08
:10156000054600BF306880077FF50DAFFFF798FC98
:10157000401B02284FF00300F4D920E7306A20F026
:1015800001003062306A20F004003062FFF788FC0E
:10159000054641F2883700BF306A800720D5FFF743
:1015A0007FFC401BB8424FF00300F5D907E700BFAE
:1015B000306A40F004003062306A40F0010030626E
:1015C000FFF76EFC054641F2883700BF306A80079E
:1015D00006D4FFF765FC401BB842F7D937E000BFDF
:1015E000B8F1000F7FF4D5AEF06920F08050F061C3
:1015F000CFE600BF306820F480303060306820F4DF
:1016000080203060FFF74CFC054600BF3068800347
:101610007FF59DAEFFF744FC401B64284FF00300AC
:10162000F4D9CCE6306840F480203060306840F473
:1016300080303060FFF734FC054600BF306880031F
:101640003FF585AEFFF72CFC401B6428F6D903203C
:1016500002B0BDE8F08100BF206AB0F5803F05D13F
:101660007168A26821F40031114371607168626A87
:1016700021F4741111430843706001203866FFF7AC
:101680000FFC0446306880013FF598AEFFF708FC78
:10169000001B02284FF00300F4D990E6411E002001
:1016A000B0EB116F1CBF012070474EF21002CEF25A
:1016B000000251604EF62351CEF20001F0230B7070
:1016C000072190601160704770470000704700006C
:1016D00010B590F83C20012A4FF0020216D080F895
:1016E0003D2002685368D2F808C023F0700ED1E99B
:1016F00000342CF0800143EA0E03214353609160D3
:101700000121002280F83D1080F83C20104610BDD9
:10171000002804BF0120704710B5044690F83D0032
:1017200028B9002084F83C00204600F055F802203B
:1017300084F83D00206840F2FF730268C4F20003A1
:1017400042F6004C9842C4F2010C15DCB0F1804F17
:101750001AD040F20041C4F20001884214D09842ED
:1017600018DCB0F1804F1DD040F20041C4F20001FE
:10177000884217D01AE000BF604505D040F600014E
:10178000C4F200018842EAD1A16822F070020A4343
:101790009842E6DD604505D040F60001C4F2000144
:1017A000884203D1216922F440720A43A36922F0DE
:1017B0008001D4F804E0E268194360450160C26228
:1017C000C0F828E002D16169CCF8301001214161F4
:1017D000002084F83D1010BD80B582B0006842F64C
:1017E0000041C4F2010188421CBF02B080BD41F239
:1017F0001800C4F202000168002241F40061016097
:101800000068002100F40060019001981920FFF7A2
:10181000C9FB192002B0BDE88040FFF7AFBB000054
:101820000068C16841F00101C160816801F00701F1
:10183000062903D0016841F00101016000207047D2
:1018400080B590F83C20012A4FF0020200F0BF80E2
:1018500080F83D20D0F800C04FF67772DCF80830F1
:1018600023EA0202CCF808200B683F2B1CDD5F2B1B
:1018700020DD602B50D0B3F5005F6DD0702B40F0B1
:10188000A080D1E901E3C968DCF8082043EA0E032F
:1018900022F47F4243EA01211143CCF80810DCF81E
:1018A000081041F077018AE01F2B29DC63B3102B6D
:1018B0002AD086E0402B63D0502B40F08280D1F8B4
:1018C00004E0C968DCF82030DCF8202022F00102B6
:1018D000CCF82020DCF8182022F0F00242EA0111B6
:1018E00023F00A0242EA0E02CCF81810CCF82020AD
:1018F000DCF8081041F0570121F020015FE000BF43
:10190000202B01D0302B5CD1DCF8081021F07001C5
:10191000194341F0070152E0D1F804E0C968DCF84E
:10192000203023F01003CCF82030DCF81830DCF83D
:10193000202023F4704322F0A00243EA013142EA5E
:101940000E12CCF81810CCF82020DCF8081041F06A
:10195000670121F0100132E0D1E901E3C968DCF848
:10196000082043EA0E0322F47F4243EA0121114397
:10197000CCF80810DCF8081041F480411FE000BFEB
:10198000D1F804E0C968DCF82030DCF8202022F02F
:101990000102CCF82020DCF8182022F0F00242EA04
:1019A000011123F00A0242EA0E02CCF81810CCF81A
:1019B0002020DCF8081041F0470121F03001CCF87C
:1019C00008100121002280F83D1080F83C201046CC
:1019D00080BD00007047000010B50168044608692A
:1019E000800744BFC8685FEA807039D4086940073F
:1019F00044BFC8685FEA40703ED40869000744BF2E
:101A0000C8685FEA007045D40869C00644BFC8686A
:101A10005FEAC0604AD40869C0071CBFC8685FEAB3
:101A2000C07051D10869000644BFC8685FEA006011
:101A300052D40869400644BFC8685FEA406053D486
:101A40000869800646BFC8685FEA806010BD6FF015
:101A5000200220460A61BDE81040FFF737BE00BFF4
:101A60006FF002000861012020778869800743D069
:101A70002046FFF7AFFF45E06FF004000861022049
:101A80002077886910F4407F40D02046FFF7A2FFFE
:101A900042E000BF6FF00800086104202077C869A9
:101AA00080073DD02046FFF795FF3FE06FF0100024
:101AB000086108202077C86910F4407F3AD020469A
:101AC000FFF788FF3CE000BF6FF00100086120468F
:101AD00000F03EF82168A5E76FF08000086120461D
:101AE000FFF7F2FD2168A4E76FF04000086120468F
:101AF00000F030F82168A3E7204600F025F82046E2
:101B000000F024F82168002020776FE7204600F0DD
:101B10001BF8204600F01AF82168002020776CE7B7
:101B2000204600F011F8204600F010F8216800204F
:101B3000207769E7204600F007F8204600F006F815
:101B400021680020207766E770470000704700009A
:101B50007047000070470000FFF7A8B941F200008D
:101B6000C4F202000168002241F0010101604168F5
:101B7000CFF6FF021140416001684FF6FF72CFF6C9
:101B8000F66211400160016821F480210160416822
:101B900021F4FE0141604FF41F0181604EF60850B0
:101BA000CEF200004FF000610160704710B540F2C6
:101BB000FC04C2F200046088A18801306080481CE7
:101BC0002188A080481C208000F034F96088192802
:101BD0000ED22088142812D2A088102823D240F2D6
:101BE000BC00C2F20000BDE81040FFF7F5BE00BF28
:101BF00000F094FB0020608020881428ECD3E0885B
:101C000021890130E080481C208140F60000C4F2A8
:101C10000100102100F000FB00F012F800202080ED
:101C2000A0881028DBD300F059FB0020A08040F2F0
:101C3000BC00C2F20000BDE81040FFF7CDBE0000BE
:101C400070B540F20615C2F20005287840F600048F
:101C50000028C4F2010400F08280012819D16988AB
:101C6000481C688021B180B2B0F57A7F10D96EE04F
:101C70002046202101220126FFF70CF940F27800CE
:101C8000C2F200000670688880B2B0F57A7F5ED834
:101C9000287802283ED16988481C688071B181B2D9
:101CA000B1F57A7F1AD081B2B1F5FA6F20D080B247
:101CB00040F6B83188422CD949E000BF20462021A7
:101CC00001220126FFF7E6F840F27800C2F2000098
:101CD0000670688881B2B1F57A7FE4D12046202170
:101CE0000022FFF7D7F8688881B2B1F5FA6FDED12C
:101CF0002046202101220126FFF7CCF840F278008F
:101D0000C2F200000670688880B240F6B83188429E
:101D10001DD82878032822D16988481C00296880AA
:101D200040D081B2B1F57A7F4CD081B2B1F5FA6F73
:101D300052D081B240F6B83291425ED081B2B1F554
:101D40007A6F64D080B241F28931884207D320464D
:101D5000202100220026FFF79DF86E802E70687803
:101D600001281DD1A988481CA88059B920464021C6
:101D700001220126FFF78EF840F27900C2F200003E
:101D80000670A88880B240F2DD51884238BF70BD2D
:101D90002046402100220024FFF77CF8AC806C70C4
:101DA00070BD00BF2046202101220126FFF772F8F6
:101DB00040F27800C2F200000670688881B2B1F586
:101DC0007A7FB2D1204620210022FFF763F868888D
:101DD00081B2B1F5FA6FACD1204620210122012653
:101DE000FFF758F840F27800C2F2000006706888E9
:101DF00081B240F6B8329142A0D120462021002283
:101E0000FFF748F8688881B2B1F57A6F9AD1204619
:101E1000202101220126FFF73DF840F27800C2F2AE
:101E200000000670688880B241F2893188428ED203
:101E300095E7000070B540F20615C2F2000528785B
:101E4000042843D140F20006C2F2000631786A88C5
:101E50000120002908BF4FF0FF30718802448E2412
:101E600093B24C439C426A8004D108447080E8805D
:101E700001E000BFE888000440F60000C4F2010061
:101E80004FF0200110D00122FFF704F8E888013854
:101E9000E880688844F6C46188420DD10020307023
:101EA0008D20708070BD00BF0022FEF7F3FF6888B0
:101EB00044F6C4618842F1D07088002818BF70BD14
:101EC00000206880287001207080307070BD000094
:101ED00096B0FEF7F9FF0CAC201D2421FEF774F933
:101EE00002200C9001201090102000251190204617
:101EF0000595CDE903551395FFF7F6F920B1EFF3FA
:101F0000108072B6FEE700BF0F20CDE9060506A8D7
:101F10000021CDE908550A95FFF706F920B1EFF346
:101F2000108072B6FEE700BF0227002602A80297C3
:101F30000496FFF773F828B1EFF3108072B600BF74
:101F4000FEE700BF41F21405C4F20205686840F6DE
:101F5000000840F0040068606868C4F2010800F0FE
:101F600004000C900C98404669210022FEF792FF75
:101F700011200DA90CAC4FF00109C1C1404621460A
:101F8000CDF83090FEF76AFE0820CDE90C09032059
:101F90000F90404621460E96FEF760FE10200CA9D9
:101FA00081E8410240462146FEF758FE6020CDE917
:101FB0000C0940462146CDE90E67FEF74FFE286822
:101FC000002140F0010028602868002200F0010094
:101FD0000C900C980B20FEF7E5FF0B20FEF7CEFFD0
:101FE00040F28407C2F2000708F5E051384640F895
:101FF000081F4FF4602106730675C161C0E90166D0
:10200000C0F81090FEF700FB20B1EFF3108072B61D
:10201000FEE700BF0720CDE90C09042007F1080402
:102020000E900CA92046FEF781F928B1EFF310803D
:1020300072B600BFFEE700BF08F510523846002117
:1020400040F8382F4F2205230F91CDE90D11CDE92E
:102050000611C0E90121C0E90331C0E90511FFF70C
:1020600057FB28B1EFF3108072B600BFFEE700BF48
:102070004FF4805007F138060C900CA93046FFF75A
:10208000DFFB28B1EFF3108072B600BFFEE700BFA0
:1020900006A93046FFF71CFB20B1EFF3108072B6A3
:1020A000FEE700BF30460194FFF7BAFB40F206118D
:1020B000C2F200010420087040F27800C2F2000071
:1020C00001260670404608210122FEF7E3FE404645
:1020D000012100220024FEF7DDFE40F27C0540F2E3
:1020E000120840F2021940F2041BC2F20005C2F2CB
:1020F0000008C2F20009C2F2000B07F1020A00BF99
:102100002878012822D13878022807D140F2071018
:10211000C2F200003C702C70067017E098F80010B6
:1021200000291CBF88F80040A9F80040B9F8001049
:10213000B1F5FA6F0AD340F20611C2F20001013084
:102140000E702C70387088F8006000BF2878022864
:1021500022D13878022807D140F20710C2F20000DD
:102160003C702C70067017E098F8001000291CBF16
:1021700088F80040A9F80040B9F80010B1F5FA6FEE
:102180000AD340F20611C2F20001022201300A70A5
:102190002C70387088F800602878032822D13878AD
:1021A000022807D140F20710C2F200003C702C70E8
:1021B000067017E098F8001000291CBF88F800404E
:1021C000A9F80040B9F80010B1F5FA6F0AD340F24F
:1021D0000611C2F20001032201300A702C7038701F
:1021E00088F8006028784FF07F51042808BF2C70D1
:1021F000786800F06DFB002808BF3C70BBF8000059
:10220000B0F5FA7FFFF47CAFABF80040019851467F
:102210000122FEF7F7FA73E780B5FEF72DFE40F2D4
:102220001001C2F200010A88012819D1501C02B223
:10223000332A088036DB3220088040F27C00C2F26C
:102240000000428881880132428081B38A084A2A8C
:1022500016D8417801314AB2032AC8BF05211EE0D1
:10226000501E02B2B2F1FF3F08801BDC40F27C023C
:10227000C2F20002938800200880581C908025E05C
:1022800041F257328A1A41F287339A4202D204212C
:1022900005E000BF42F21172914201D30521417065
:1022A0000021818040F27C00C2F20000428890B29E
:1022B000B0F5AF7F98BF80BD40F27C00C2F2000055
:1022C000017809B9417801700021417040F27C0029
:1022D000C2F200000021418080BD0000B0B540F294
:1022E0007805C2F200056878002808BFB0BD68888C
:1022F00040F600040130C4F2010468802046082141
:10230000FEF7C0FD20460121FEF7BCFD6888B0F550
:102310004B7F02BF002068806870B0BDB0B540F24E
:102320007805C2F200052878002808BFB0BD68888B
:1023300040F600040130C4F2010468802046082100
:10234000FEF7A0FD20460121FEF79CFD6888B0F550
:102350008C7F02BF002068802870B0BD21F0004251
:1023600001F00043A2F16052B2F5801F28BFD2F104
:102370007F6C0BD95FEA001C43EAC20242EB50704B
:1023800018BF704728BF20F001007047B2F5801FCA
:10239000BCBF184670474FEA410C1CF5001F02D223
:1023A000084600F091BB70B500F022FA00000089E9
:1023B000FFF7F6BF4FF00040A0F580007047000027
:1023C0002DE9C04130B4DFF8A4C23CEA111418BFB3
:1023D0003CEA131400F0ED801CEA111481EA0305B5
:1023E00044EAD57418BF1CEA131500F0C880A4EBAA
:1023F000050404F17F7404F500344FF0004545EA0C
:10240000C12145EAC32341EA505143EA52534FEAFE
:10241000C0204FEAC222994208BF904200F09D803E
:102420004FEA13650FF24416765D4FEA134506FB3B
:1024300005F7C7F1807706FB07F74FEAD737A7FB09
:1024400003687642A7FB06CEC8F5803838BFA8F1EE
:10245000010807FB08E6A6FB028C4FF0000EE6FB26
:1024600003CEDCF1000CCEF1004E38BFAEF1010E10
:10247000A6FB0C584FF00007E6FB0E87A1FB08C631
:10248000A0FB07CE16EB0E064FF0000545F1000548
:10249000E1FB076515F1E04E7EBFA4F580345FEAED
:1024A00046066D4116F1800745F100054FEA1727F2
:1024B00047EA05674FEA15254FEA0666A6F1DE46AC
:1024C000B6F1805F20D9384605EBC47124F0010CC9
:1024D00001EB0C11BCF1FE6F02D8F0BCBDE800812D
:1024E00024425CBF01F5801E9EEAC47F02D4F0BC8A
:1024F000BDE80081244200F13980A1F1C041F0BC67
:10250000BDE8004100F0C2B94FEAD02040EA415096
:102510004FEAD1214FEAD22242EA43524FEAD32373
:10252000A7FB028607FB036605FB02661EEA0E0F89
:1025300058BFA6EB0056B6EB00564FEA520E4EEAD5
:10254000C37E18EB0E0E56EB530EBCD518EB0208EB
:102550005E417F1C55F10005B5E74FF480154FF043
:1025600000074FF000064FF00008ACE701F1C04152
:1025700001F000414FF00000F0BCBDE800810CEA22
:10258000131511EA0C1F00D00CE013EA0C1F00F029
:1025900026804FF0000081EA030101F00041F0BC09
:1025A000BDE80081F0BCBDE8004181EA030100F014
:1025B0006DB9F0BCBDE8004170B500F019F900BF7D
:1025C000097EFC3E00F007B84FF0000081EA0301ED
:1025D00001F00041704781EA030100F057B9F0BCF7
:1025E000BDE8004122494FF000007047FFFDFBF9B4
:1025F000F7F5F4F2F0EEEDEBE9E8E6E4E3E1E0DE36
:10260000DDDBDAD8D7D5D4D3D1D0CFCDCCCBCAC8A7
:10261000C7C6C5C4C2C1C0BFBEBDBCBBBAB9B8B7CE
:10262000B6B5B4B3B2B1B0AFAEADACABAAA9A8A8C1
:10263000A7A6A5A4A3A3A2A1A09F9F9E9D9C9C9B8F
:102640009A9999989797969595949393929191903A
:102650008F8F8E8E8D8C8C8B8B8A898988888787CB
:102660008685858484838382828181800000FF0740
:102670000000F87FB0FA80F310FA03F10AD0C3F13A
:102680001D0303F580634FEA03524FEA415002EB0A
:10269000D12170474FF000007047000070B5DFF89F
:1026A00048C11CEA111E1EBF1CEA13159EEA0C0F3E
:1026B00095EA0C0F00F06F8081EA03044EEAD47EA5
:1026C000AE4421EA4C1123EA4C1341F4801143F447
:1026D0008013AEF17F7EA1FB024CA0FB036536198F
:1026E00055EB0C05A1FB034C4CF10003A0FB021CB5
:1026F00016EB0C06654153F10003094218BF46F082
:10270000010613F4007F0BD14FEA03314FEA053085
:1027100041EA155140EA165034036FF003020AE013
:102720004FEAC3214FEAC52041EA555140EA5650CD
:10273000F4026FF0020202EB2E4201EB025585EA31
:10274000CE710AD05FEA440C18BF24F0004450F167
:10275000000041F1000120EAD47040F2FE7C6245A5
:1027600000D270BDA84214BF4FF080444FF04044E7
:10277000002E08BF0024BEF1806FA8BFA1F1C041A8
:10278000BDE8704080F2828001F1C04101F000415B
:102790004FF0000070470CEA13159EEA0C0F18BFAB
:1027A00095EA0C0F06D081EA030E4FF000000EF000
:1027B000004170BD00F01CF88900013E00F007B830
:1027C00000F009B84FEA430C5FEA5C5C08D081EA8C
:1027D000030100F05BB84FEA410C5FEA5C5CF6D1A4
:1027E00002494FF0000070470000FF070000F87F2B
:1027F0000EF1020E2EF0030E5EF8046B364205D485
:10280000012A43EB030515F5001F12D8012841EBFF
:10281000010C1CF5001F0CD80ED14FEAD17C0CEB3B
:102820004C0C0CF1020C15F5001F08BF4CEBD37CCF
:1028300004E04FF0080C01E04FEAD37C0CEB4C05B0
:1028400026FA05F606F00706B6F1040C06D20EEBE2
:10285000860CBDE870404CF0010C6047DFE80CF0DE
:10286000090B02024FF00041A1F500214FF00000DA
:1028700070BD19461046012851EB010418BFD4F56C
:10288000001484BF002001F0004170BD0808A0F5CD
:1028900000114FEA3101704710B500F033F80CBF5A
:1028A0000120002010BD10B500F02CF814BF01204D
:1028B000002010BD10B500F059F88CBF0120002099
:1028C00010BD10B500F052F82CBF0120002010BD43
:1028D00010B500F07FF894BF0120002010BD10B5A6
:1028E00000F078F834BF0120002010BD401058BF20
:1028F000C0F14040491058BFC1F140418142EFF35F
:102900000080704750EA010C00F113801CF5000FA5
:1029100058BFBCF5000F01D48842704707D710F5A7
:10292000000F58BF11F5000F15D488427047894237
:1029300070471CF5000F04D5BCF5000FF7D5814298
:1029400070474FF0807C1CEB400F38BF1CEB410FF1
:1029500001D28142704710B500F070F8922449000E
:102960004FF000504FF08051FFF7C0BF50EA010C0C
:1029700000F113801CF5000F58BFBCF5000F01D407
:102980008842704707D710F5000F58BF11F5000FA8
:1029900015D488427047894270471CF5000F04D552
:1029A000BCF5000FF7D5814270474FF0807C1CEBDF
:1029B000400F38BF1CEB410F01D28142704710B568
:1029C00000F03CF8922449004FF080504FF0005145
:1029D000FFF78CBF50EA010C00F113801CF5000FCB
:1029E00058BFBCF5000F01D48842704707D710F5D7
:1029F000000F58BF11F5000F15D488427047894267
:102A000070471CF5000F04D5BCF5000FF7D58142C7
:102A100070474FF0807C1CEB400F38BF1CEB410F20
:102A200001D28142704710B500F008F892244900A5
:102A30004FF000504FF08051FFF758BF0EF1020EDB
:102A40002EF0030E5EF8044B244204D44FEA4102F8
:102A5000B2F17F4F11D84FEA4003B3F17F4F0CD84A
:102A60000ED14FEAD07C0CEB4C0C0CF1020CB2F105
:102A70007F4F08BF4CEBD17C04E04FF0080C01E025
:102A80004FEAD17C0CEB4C0324FA03F404F0070466
:102A9000B4F1040C06D20EEB840CBDE810404CF0EF
:102AA000010C6047DFE80CF0070802024FF000401D
:102AB000A0F5800010BD0846420018BFD2F1807218
:102AC00088BF00F0004010BDFF2141EAD050C00592
:102AD0007047010200000000000000000102030432
:102AE0000607080902030405060708090A0B0C0D6E
:102AF0000E0F1010182B0008000000201800000016
:102B000028010008302B00081800002040070000B2
:102B10004401000800000000010001000100000065
:102B2000100000000024F40032000100000000004A
:04000005080000ED02
:00000001FF
